ARM GAS  /var/folders/m5/4z4npxsx1wb4l_wt_3ldt0t40000gn/T//cc7bJaXh.s 			page 1


   1              		.cpu cortex-m3
   2              		.eabi_attribute 20, 1
   3              		.eabi_attribute 21, 1
   4              		.eabi_attribute 23, 3
   5              		.eabi_attribute 24, 1
   6              		.eabi_attribute 25, 1
   7              		.eabi_attribute 26, 1
   8              		.eabi_attribute 30, 1
   9              		.eabi_attribute 34, 1
  10              		.eabi_attribute 18, 4
  11              		.file	"stm32f1xx_hal_timebase_tim.c"
  12              		.text
  13              	.Ltext0:
  14              		.cfi_sections	.debug_frame
  15              		.section	.text.HAL_InitTick,"ax",%progbits
  16              		.align	1
  17              		.global	HAL_InitTick
  18              		.arch armv7-m
  19              		.syntax unified
  20              		.thumb
  21              		.thumb_func
  22              		.fpu softvfp
  24              	HAL_InitTick:
  25              	.LVL0:
  26              	.LFB65:
  27              		.file 1 "Core/Src/stm32f1xx_hal_timebase_tim.c"
   1:Core/Src/stm32f1xx_hal_timebase_tim.c **** /* USER CODE BEGIN Header */
   2:Core/Src/stm32f1xx_hal_timebase_tim.c **** /**
   3:Core/Src/stm32f1xx_hal_timebase_tim.c ****   ******************************************************************************
   4:Core/Src/stm32f1xx_hal_timebase_tim.c ****   * @file    stm32f1xx_hal_timebase_TIM.c
   5:Core/Src/stm32f1xx_hal_timebase_tim.c ****   * @brief   HAL time base based on the hardware TIM.
   6:Core/Src/stm32f1xx_hal_timebase_tim.c ****   ******************************************************************************
   7:Core/Src/stm32f1xx_hal_timebase_tim.c ****   * @attention
   8:Core/Src/stm32f1xx_hal_timebase_tim.c ****   *
   9:Core/Src/stm32f1xx_hal_timebase_tim.c ****   * <h2><center>&copy; Copyright (c) 2021 STMicroelectronics.
  10:Core/Src/stm32f1xx_hal_timebase_tim.c ****   * All rights reserved.</center></h2>
  11:Core/Src/stm32f1xx_hal_timebase_tim.c ****   *
  12:Core/Src/stm32f1xx_hal_timebase_tim.c ****   * This software component is licensed by ST under Ultimate Liberty license
  13:Core/Src/stm32f1xx_hal_timebase_tim.c ****   * SLA0044, the "License"; You may not use this file except in compliance with
  14:Core/Src/stm32f1xx_hal_timebase_tim.c ****   * the License. You may obtain a copy of the License at:
  15:Core/Src/stm32f1xx_hal_timebase_tim.c ****   *                             www.st.com/SLA0044
  16:Core/Src/stm32f1xx_hal_timebase_tim.c ****   *
  17:Core/Src/stm32f1xx_hal_timebase_tim.c ****   ******************************************************************************
  18:Core/Src/stm32f1xx_hal_timebase_tim.c ****   */
  19:Core/Src/stm32f1xx_hal_timebase_tim.c **** /* USER CODE END Header */
  20:Core/Src/stm32f1xx_hal_timebase_tim.c **** 
  21:Core/Src/stm32f1xx_hal_timebase_tim.c **** /* Includes ------------------------------------------------------------------*/
  22:Core/Src/stm32f1xx_hal_timebase_tim.c **** #include "stm32f1xx_hal.h"
  23:Core/Src/stm32f1xx_hal_timebase_tim.c **** #include "stm32f1xx_hal_tim.h"
  24:Core/Src/stm32f1xx_hal_timebase_tim.c **** 
  25:Core/Src/stm32f1xx_hal_timebase_tim.c **** /* Private typedef -----------------------------------------------------------*/
  26:Core/Src/stm32f1xx_hal_timebase_tim.c **** /* Private define ------------------------------------------------------------*/
  27:Core/Src/stm32f1xx_hal_timebase_tim.c **** /* Private macro -------------------------------------------------------------*/
  28:Core/Src/stm32f1xx_hal_timebase_tim.c **** /* Private variables ---------------------------------------------------------*/
  29:Core/Src/stm32f1xx_hal_timebase_tim.c **** TIM_HandleTypeDef        htim1;
  30:Core/Src/stm32f1xx_hal_timebase_tim.c **** /* Private function prototypes -----------------------------------------------*/
  31:Core/Src/stm32f1xx_hal_timebase_tim.c **** /* Private functions ---------------------------------------------------------*/
ARM GAS  /var/folders/m5/4z4npxsx1wb4l_wt_3ldt0t40000gn/T//cc7bJaXh.s 			page 2


  32:Core/Src/stm32f1xx_hal_timebase_tim.c **** 
  33:Core/Src/stm32f1xx_hal_timebase_tim.c **** /**
  34:Core/Src/stm32f1xx_hal_timebase_tim.c ****   * @brief  This function configures the TIM1 as a time base source.
  35:Core/Src/stm32f1xx_hal_timebase_tim.c ****   *         The time source is configured  to have 1ms time base with a dedicated
  36:Core/Src/stm32f1xx_hal_timebase_tim.c ****   *         Tick interrupt priority.
  37:Core/Src/stm32f1xx_hal_timebase_tim.c ****   * @note   This function is called  automatically at the beginning of program after
  38:Core/Src/stm32f1xx_hal_timebase_tim.c ****   *         reset by HAL_Init() or at any time when clock is configured, by HAL_RCC_ClockConfig().
  39:Core/Src/stm32f1xx_hal_timebase_tim.c ****   * @param  TickPriority: Tick interrupt priority.
  40:Core/Src/stm32f1xx_hal_timebase_tim.c ****   * @retval HAL status
  41:Core/Src/stm32f1xx_hal_timebase_tim.c ****   */
  42:Core/Src/stm32f1xx_hal_timebase_tim.c **** HAL_StatusTypeDef HAL_InitTick(uint32_t TickPriority)
  43:Core/Src/stm32f1xx_hal_timebase_tim.c **** {
  28              		.loc 1 43 1 view -0
  29              		.cfi_startproc
  30              		@ args = 0, pretend = 0, frame = 32
  31              		@ frame_needed = 0, uses_anonymous_args = 0
  32              		.loc 1 43 1 is_stmt 0 view .LVU1
  33 0000 00B5     		push	{lr}
  34              	.LCFI0:
  35              		.cfi_def_cfa_offset 4
  36              		.cfi_offset 14, -4
  37 0002 89B0     		sub	sp, sp, #36
  38              	.LCFI1:
  39              		.cfi_def_cfa_offset 40
  40 0004 0146     		mov	r1, r0
  44:Core/Src/stm32f1xx_hal_timebase_tim.c ****   RCC_ClkInitTypeDef    clkconfig;
  41              		.loc 1 44 3 is_stmt 1 view .LVU2
  45:Core/Src/stm32f1xx_hal_timebase_tim.c ****   uint32_t              uwTimclock = 0;
  42              		.loc 1 45 3 view .LVU3
  43              	.LVL1:
  46:Core/Src/stm32f1xx_hal_timebase_tim.c ****   uint32_t              uwPrescalerValue = 0;
  44              		.loc 1 46 3 view .LVU4
  47:Core/Src/stm32f1xx_hal_timebase_tim.c ****   uint32_t              pFLatency;
  45              		.loc 1 47 3 view .LVU5
  48:Core/Src/stm32f1xx_hal_timebase_tim.c ****   /*Configure the TIM1 IRQ priority */
  49:Core/Src/stm32f1xx_hal_timebase_tim.c ****   HAL_NVIC_SetPriority(TIM1_UP_IRQn, TickPriority ,0);
  46              		.loc 1 49 3 view .LVU6
  47 0006 0022     		movs	r2, #0
  48 0008 1920     		movs	r0, #25
  49              	.LVL2:
  50              		.loc 1 49 3 is_stmt 0 view .LVU7
  51 000a FFF7FEFF 		bl	HAL_NVIC_SetPriority
  52              	.LVL3:
  50:Core/Src/stm32f1xx_hal_timebase_tim.c **** 
  51:Core/Src/stm32f1xx_hal_timebase_tim.c ****   /* Enable the TIM1 global Interrupt */
  52:Core/Src/stm32f1xx_hal_timebase_tim.c ****   HAL_NVIC_EnableIRQ(TIM1_UP_IRQn);
  53              		.loc 1 52 3 is_stmt 1 view .LVU8
  54 000e 1920     		movs	r0, #25
  55 0010 FFF7FEFF 		bl	HAL_NVIC_EnableIRQ
  56              	.LVL4:
  53:Core/Src/stm32f1xx_hal_timebase_tim.c **** 
  54:Core/Src/stm32f1xx_hal_timebase_tim.c ****   /* Enable TIM1 clock */
  55:Core/Src/stm32f1xx_hal_timebase_tim.c ****   __HAL_RCC_TIM1_CLK_ENABLE();
  57              		.loc 1 55 3 view .LVU9
  58              	.LBB2:
  59              		.loc 1 55 3 view .LVU10
  60              		.loc 1 55 3 view .LVU11
ARM GAS  /var/folders/m5/4z4npxsx1wb4l_wt_3ldt0t40000gn/T//cc7bJaXh.s 			page 3


  61 0014 144B     		ldr	r3, .L6
  62 0016 9A69     		ldr	r2, [r3, #24]
  63 0018 42F40062 		orr	r2, r2, #2048
  64 001c 9A61     		str	r2, [r3, #24]
  65              		.loc 1 55 3 view .LVU12
  66 001e 9B69     		ldr	r3, [r3, #24]
  67 0020 03F40063 		and	r3, r3, #2048
  68 0024 0193     		str	r3, [sp, #4]
  69              		.loc 1 55 3 view .LVU13
  70 0026 019B     		ldr	r3, [sp, #4]
  71              	.LBE2:
  72              		.loc 1 55 3 view .LVU14
  56:Core/Src/stm32f1xx_hal_timebase_tim.c **** 
  57:Core/Src/stm32f1xx_hal_timebase_tim.c ****   /* Get clock configuration */
  58:Core/Src/stm32f1xx_hal_timebase_tim.c ****   HAL_RCC_GetClockConfig(&clkconfig, &pFLatency);
  73              		.loc 1 58 3 view .LVU15
  74 0028 02A9     		add	r1, sp, #8
  75 002a 03A8     		add	r0, sp, #12
  76 002c FFF7FEFF 		bl	HAL_RCC_GetClockConfig
  77              	.LVL5:
  59:Core/Src/stm32f1xx_hal_timebase_tim.c **** 
  60:Core/Src/stm32f1xx_hal_timebase_tim.c ****   /* Compute TIM1 clock */
  61:Core/Src/stm32f1xx_hal_timebase_tim.c ****   uwTimclock = HAL_RCC_GetPCLK2Freq();
  78              		.loc 1 61 3 view .LVU16
  79              		.loc 1 61 16 is_stmt 0 view .LVU17
  80 0030 FFF7FEFF 		bl	HAL_RCC_GetPCLK2Freq
  81              	.LVL6:
  62:Core/Src/stm32f1xx_hal_timebase_tim.c ****   /* Compute the prescaler value to have TIM1 counter clock equal to 1MHz */
  63:Core/Src/stm32f1xx_hal_timebase_tim.c ****   uwPrescalerValue = (uint32_t) ((uwTimclock / 1000000U) - 1U);
  82              		.loc 1 63 3 is_stmt 1 view .LVU18
  83              		.loc 1 63 46 is_stmt 0 view .LVU19
  84 0034 0D4B     		ldr	r3, .L6+4
  85 0036 A3FB0023 		umull	r2, r3, r3, r0
  86 003a 9B0C     		lsrs	r3, r3, #18
  87              		.loc 1 63 20 view .LVU20
  88 003c 013B     		subs	r3, r3, #1
  89              	.LVL7:
  64:Core/Src/stm32f1xx_hal_timebase_tim.c **** 
  65:Core/Src/stm32f1xx_hal_timebase_tim.c ****   /* Initialize TIM1 */
  66:Core/Src/stm32f1xx_hal_timebase_tim.c ****   htim1.Instance = TIM1;
  90              		.loc 1 66 3 is_stmt 1 view .LVU21
  91              		.loc 1 66 18 is_stmt 0 view .LVU22
  92 003e 0C48     		ldr	r0, .L6+8
  93              	.LVL8:
  94              		.loc 1 66 18 view .LVU23
  95 0040 0C4A     		ldr	r2, .L6+12
  96 0042 0260     		str	r2, [r0]
  67:Core/Src/stm32f1xx_hal_timebase_tim.c **** 
  68:Core/Src/stm32f1xx_hal_timebase_tim.c ****   /* Initialize TIMx peripheral as follow:
  69:Core/Src/stm32f1xx_hal_timebase_tim.c ****   + Period = [(TIM1CLK/1000) - 1]. to have a (1/1000) s time base.
  70:Core/Src/stm32f1xx_hal_timebase_tim.c ****   + Prescaler = (uwTimclock/1000000 - 1) to have a 1MHz counter clock.
  71:Core/Src/stm32f1xx_hal_timebase_tim.c ****   + ClockDivision = 0
  72:Core/Src/stm32f1xx_hal_timebase_tim.c ****   + Counter direction = Up
  73:Core/Src/stm32f1xx_hal_timebase_tim.c ****   */
  74:Core/Src/stm32f1xx_hal_timebase_tim.c ****   htim1.Init.Period = (1000000U / 1000U) - 1U;
  97              		.loc 1 74 3 is_stmt 1 view .LVU24
  98              		.loc 1 74 21 is_stmt 0 view .LVU25
ARM GAS  /var/folders/m5/4z4npxsx1wb4l_wt_3ldt0t40000gn/T//cc7bJaXh.s 			page 4


  99 0044 40F2E732 		movw	r2, #999
 100 0048 C260     		str	r2, [r0, #12]
  75:Core/Src/stm32f1xx_hal_timebase_tim.c ****   htim1.Init.Prescaler = uwPrescalerValue;
 101              		.loc 1 75 3 is_stmt 1 view .LVU26
 102              		.loc 1 75 24 is_stmt 0 view .LVU27
 103 004a 4360     		str	r3, [r0, #4]
  76:Core/Src/stm32f1xx_hal_timebase_tim.c ****   htim1.Init.ClockDivision = 0;
 104              		.loc 1 76 3 is_stmt 1 view .LVU28
 105              		.loc 1 76 28 is_stmt 0 view .LVU29
 106 004c 0023     		movs	r3, #0
 107              	.LVL9:
 108              		.loc 1 76 28 view .LVU30
 109 004e 0361     		str	r3, [r0, #16]
  77:Core/Src/stm32f1xx_hal_timebase_tim.c ****   htim1.Init.CounterMode = TIM_COUNTERMODE_UP;
 110              		.loc 1 77 3 is_stmt 1 view .LVU31
 111              		.loc 1 77 26 is_stmt 0 view .LVU32
 112 0050 8360     		str	r3, [r0, #8]
  78:Core/Src/stm32f1xx_hal_timebase_tim.c **** 
  79:Core/Src/stm32f1xx_hal_timebase_tim.c ****   if(HAL_TIM_Base_Init(&htim1) == HAL_OK)
 113              		.loc 1 79 3 is_stmt 1 view .LVU33
 114              		.loc 1 79 6 is_stmt 0 view .LVU34
 115 0052 FFF7FEFF 		bl	HAL_TIM_Base_Init
 116              	.LVL10:
 117              		.loc 1 79 5 view .LVU35
 118 0056 18B1     		cbz	r0, .L5
  80:Core/Src/stm32f1xx_hal_timebase_tim.c ****   {
  81:Core/Src/stm32f1xx_hal_timebase_tim.c ****     /* Start the TIM time Base generation in interrupt mode */
  82:Core/Src/stm32f1xx_hal_timebase_tim.c ****     return HAL_TIM_Base_Start_IT(&htim1);
  83:Core/Src/stm32f1xx_hal_timebase_tim.c ****   }
  84:Core/Src/stm32f1xx_hal_timebase_tim.c **** 
  85:Core/Src/stm32f1xx_hal_timebase_tim.c ****   /* Return function status */
  86:Core/Src/stm32f1xx_hal_timebase_tim.c ****   return HAL_ERROR;
 119              		.loc 1 86 10 view .LVU36
 120 0058 0120     		movs	r0, #1
 121              	.L2:
  87:Core/Src/stm32f1xx_hal_timebase_tim.c **** }
 122              		.loc 1 87 1 view .LVU37
 123 005a 09B0     		add	sp, sp, #36
 124              	.LCFI2:
 125              		.cfi_remember_state
 126              		.cfi_def_cfa_offset 4
 127              		@ sp needed
 128 005c 5DF804FB 		ldr	pc, [sp], #4
 129              	.L5:
 130              	.LCFI3:
 131              		.cfi_restore_state
  82:Core/Src/stm32f1xx_hal_timebase_tim.c ****   }
 132              		.loc 1 82 5 is_stmt 1 view .LVU38
  82:Core/Src/stm32f1xx_hal_timebase_tim.c ****   }
 133              		.loc 1 82 12 is_stmt 0 view .LVU39
 134 0060 0348     		ldr	r0, .L6+8
 135 0062 FFF7FEFF 		bl	HAL_TIM_Base_Start_IT
 136              	.LVL11:
 137 0066 F8E7     		b	.L2
 138              	.L7:
 139              		.align	2
 140              	.L6:
ARM GAS  /var/folders/m5/4z4npxsx1wb4l_wt_3ldt0t40000gn/T//cc7bJaXh.s 			page 5


 141 0068 00100240 		.word	1073876992
 142 006c 83DE1B43 		.word	1125899907
 143 0070 00000000 		.word	.LANCHOR0
 144 0074 002C0140 		.word	1073818624
 145              		.cfi_endproc
 146              	.LFE65:
 148              		.section	.text.HAL_SuspendTick,"ax",%progbits
 149              		.align	1
 150              		.global	HAL_SuspendTick
 151              		.syntax unified
 152              		.thumb
 153              		.thumb_func
 154              		.fpu softvfp
 156              	HAL_SuspendTick:
 157              	.LFB66:
  88:Core/Src/stm32f1xx_hal_timebase_tim.c **** 
  89:Core/Src/stm32f1xx_hal_timebase_tim.c **** /**
  90:Core/Src/stm32f1xx_hal_timebase_tim.c ****   * @brief  Suspend Tick increment.
  91:Core/Src/stm32f1xx_hal_timebase_tim.c ****   * @note   Disable the tick increment by disabling TIM1 update interrupt.
  92:Core/Src/stm32f1xx_hal_timebase_tim.c ****   * @param  None
  93:Core/Src/stm32f1xx_hal_timebase_tim.c ****   * @retval None
  94:Core/Src/stm32f1xx_hal_timebase_tim.c ****   */
  95:Core/Src/stm32f1xx_hal_timebase_tim.c **** void HAL_SuspendTick(void)
  96:Core/Src/stm32f1xx_hal_timebase_tim.c **** {
 158              		.loc 1 96 1 is_stmt 1 view -0
 159              		.cfi_startproc
 160              		@ args = 0, pretend = 0, frame = 0
 161              		@ frame_needed = 0, uses_anonymous_args = 0
 162              		@ link register save eliminated.
  97:Core/Src/stm32f1xx_hal_timebase_tim.c ****   /* Disable TIM1 update Interrupt */
  98:Core/Src/stm32f1xx_hal_timebase_tim.c ****   __HAL_TIM_DISABLE_IT(&htim1, TIM_IT_UPDATE);
 163              		.loc 1 98 3 view .LVU41
 164 0000 034B     		ldr	r3, .L9
 165 0002 1A68     		ldr	r2, [r3]
 166 0004 D368     		ldr	r3, [r2, #12]
 167 0006 23F00103 		bic	r3, r3, #1
 168 000a D360     		str	r3, [r2, #12]
  99:Core/Src/stm32f1xx_hal_timebase_tim.c **** }
 169              		.loc 1 99 1 is_stmt 0 view .LVU42
 170 000c 7047     		bx	lr
 171              	.L10:
 172 000e 00BF     		.align	2
 173              	.L9:
 174 0010 00000000 		.word	.LANCHOR0
 175              		.cfi_endproc
 176              	.LFE66:
 178              		.section	.text.HAL_ResumeTick,"ax",%progbits
 179              		.align	1
 180              		.global	HAL_ResumeTick
 181              		.syntax unified
 182              		.thumb
 183              		.thumb_func
 184              		.fpu softvfp
 186              	HAL_ResumeTick:
 187              	.LFB67:
 100:Core/Src/stm32f1xx_hal_timebase_tim.c **** 
 101:Core/Src/stm32f1xx_hal_timebase_tim.c **** /**
ARM GAS  /var/folders/m5/4z4npxsx1wb4l_wt_3ldt0t40000gn/T//cc7bJaXh.s 			page 6


 102:Core/Src/stm32f1xx_hal_timebase_tim.c ****   * @brief  Resume Tick increment.
 103:Core/Src/stm32f1xx_hal_timebase_tim.c ****   * @note   Enable the tick increment by Enabling TIM1 update interrupt.
 104:Core/Src/stm32f1xx_hal_timebase_tim.c ****   * @param  None
 105:Core/Src/stm32f1xx_hal_timebase_tim.c ****   * @retval None
 106:Core/Src/stm32f1xx_hal_timebase_tim.c ****   */
 107:Core/Src/stm32f1xx_hal_timebase_tim.c **** void HAL_ResumeTick(void)
 108:Core/Src/stm32f1xx_hal_timebase_tim.c **** {
 188              		.loc 1 108 1 is_stmt 1 view -0
 189              		.cfi_startproc
 190              		@ args = 0, pretend = 0, frame = 0
 191              		@ frame_needed = 0, uses_anonymous_args = 0
 192              		@ link register save eliminated.
 109:Core/Src/stm32f1xx_hal_timebase_tim.c ****   /* Enable TIM1 Update interrupt */
 110:Core/Src/stm32f1xx_hal_timebase_tim.c ****   __HAL_TIM_ENABLE_IT(&htim1, TIM_IT_UPDATE);
 193              		.loc 1 110 3 view .LVU44
 194 0000 034B     		ldr	r3, .L12
 195 0002 1A68     		ldr	r2, [r3]
 196 0004 D368     		ldr	r3, [r2, #12]
 197 0006 43F00103 		orr	r3, r3, #1
 198 000a D360     		str	r3, [r2, #12]
 111:Core/Src/stm32f1xx_hal_timebase_tim.c **** }
 199              		.loc 1 111 1 is_stmt 0 view .LVU45
 200 000c 7047     		bx	lr
 201              	.L13:
 202 000e 00BF     		.align	2
 203              	.L12:
 204 0010 00000000 		.word	.LANCHOR0
 205              		.cfi_endproc
 206              	.LFE67:
 208              		.global	htim1
 209              		.section	.bss.htim1,"aw",%nobits
 210              		.align	2
 211              		.set	.LANCHOR0,. + 0
 214              	htim1:
 215 0000 00000000 		.space	72
 215      00000000 
 215      00000000 
 215      00000000 
 215      00000000 
 216              		.text
 217              	.Letext0:
 218              		.file 2 "/Users/dborn/Library/Application Support/Code/User/globalStorage/bmd.stm32-for-vscode/@xp
 219              		.file 3 "/Users/dborn/Library/Application Support/Code/User/globalStorage/bmd.stm32-for-vscode/@xp
 220              		.file 4 "Drivers/CMSIS/Device/ST/STM32F1xx/Include/stm32f107xc.h"
 221              		.file 5 "Drivers/STM32F1xx_HAL_Driver/Inc/stm32f1xx_hal_def.h"
 222              		.file 6 "Drivers/STM32F1xx_HAL_Driver/Inc/stm32f1xx_hal_rcc.h"
 223              		.file 7 "Drivers/STM32F1xx_HAL_Driver/Inc/stm32f1xx_hal_dma.h"
 224              		.file 8 "Drivers/STM32F1xx_HAL_Driver/Inc/stm32f1xx_hal_tim.h"
 225              		.file 9 "Drivers/STM32F1xx_HAL_Driver/Inc/stm32f1xx_hal_cortex.h"
ARM GAS  /var/folders/m5/4z4npxsx1wb4l_wt_3ldt0t40000gn/T//cc7bJaXh.s 			page 7


DEFINED SYMBOLS
                            *ABS*:0000000000000000 stm32f1xx_hal_timebase_tim.c
/var/folders/m5/4z4npxsx1wb4l_wt_3ldt0t40000gn/T//cc7bJaXh.s:16     .text.HAL_InitTick:0000000000000000 $t
/var/folders/m5/4z4npxsx1wb4l_wt_3ldt0t40000gn/T//cc7bJaXh.s:24     .text.HAL_InitTick:0000000000000000 HAL_InitTick
/var/folders/m5/4z4npxsx1wb4l_wt_3ldt0t40000gn/T//cc7bJaXh.s:141    .text.HAL_InitTick:0000000000000068 $d
/var/folders/m5/4z4npxsx1wb4l_wt_3ldt0t40000gn/T//cc7bJaXh.s:149    .text.HAL_SuspendTick:0000000000000000 $t
/var/folders/m5/4z4npxsx1wb4l_wt_3ldt0t40000gn/T//cc7bJaXh.s:156    .text.HAL_SuspendTick:0000000000000000 HAL_SuspendTick
/var/folders/m5/4z4npxsx1wb4l_wt_3ldt0t40000gn/T//cc7bJaXh.s:174    .text.HAL_SuspendTick:0000000000000010 $d
/var/folders/m5/4z4npxsx1wb4l_wt_3ldt0t40000gn/T//cc7bJaXh.s:179    .text.HAL_ResumeTick:0000000000000000 $t
/var/folders/m5/4z4npxsx1wb4l_wt_3ldt0t40000gn/T//cc7bJaXh.s:186    .text.HAL_ResumeTick:0000000000000000 HAL_ResumeTick
/var/folders/m5/4z4npxsx1wb4l_wt_3ldt0t40000gn/T//cc7bJaXh.s:204    .text.HAL_ResumeTick:0000000000000010 $d
/var/folders/m5/4z4npxsx1wb4l_wt_3ldt0t40000gn/T//cc7bJaXh.s:214    .bss.htim1:0000000000000000 htim1
/var/folders/m5/4z4npxsx1wb4l_wt_3ldt0t40000gn/T//cc7bJaXh.s:210    .bss.htim1:0000000000000000 $d

UNDEFINED SYMBOLS
HAL_NVIC_SetPriority
HAL_NVIC_EnableIRQ
HAL_RCC_GetClockConfig
HAL_RCC_GetPCLK2Freq
HAL_TIM_Base_Init
HAL_TIM_Base_Start_IT
