:020000040800F2
:1000000000000120952200088D0700088F070008D6
:1000100091070008930700089507000800000000FA
:1000200000000000000000000000000011170008A0
:100030009707000800000000B1170008F517000836
:10004000DD220008DD220008DD220008DD22000894
:10005000DD220008DD220008DD220008DD22000884
:10006000DD220008DD220008DD220008DD22000874
:10007000DD220008DD220008DD220008DD22000864
:10008000DD220008DD220008DD220008DD22000854
:10009000DD220008DD220008DD220008DD22000844
:1000A000DD22000899070008DD220008DD22000893
:1000B000DD220008DD220008DD220008DD22000824
:1000C000DD220008DD220008DD220008DD22000814
:1000D000DD220008DD220008DD220008DD22000804
:1000E000DD220008DD220008DD22000800000000FB
:1000F0000000000000000000000000000000000000
:100100000000000000000000DD220008DD220008E1
:10011000DD220008DD220008DD220008DD220008C3
:10012000DD220008DD220008DD220008DD220008B3
:10013000DD220008DD220008DD220008DD220008A3
:10014000DD220008DD220008DD220008DD22000893
:10015000000000000000000000000000000000009F
:10016000000000000000000000000000000000008F
:10017000000000000000000000000000000000007F
:10018000000000000000000000000000000000006F
:10019000000000000000000000000000000000005F
:1001A000000000000000000000000000000000004F
:1001B000000000000000000000000000000000003F
:1001C000000000000000000000000000000000002F
:1001D000000000000000000000000000000000001F
:0401E0005FF8E0F1F3
:1001F000844641EA000313F0030349D1403A23D374
:100200000B6803604B6843608B688360CB68C36096
:100210000B6903614B6943618B698361CB69C3617E
:100220000B6A03624B6A43628B6A8362CB6AC36266
:100230000B6B03634B6B43638B6B8363CB6BC3634E
:1002400040304031403ADBD230320BD30B68036090
:100250004B6843608B688360CB68C360103010319B
:10026000103AF3D20C3205D351F8043B40F8043B6A
:10027000043AF9D2043208D0D2071CBF11F8013B6E
:1002800000F8013B01D30B8803806046704700BF34
:10029000082A13D38B07B1D010F00303AED0C3F1FB
:1002A0000403D21ADB071CBF11F8013B00F8013B25
:1002B000A4D331F8023B20F8023B9FE7043AD9D39C
:1002C000013A11F8013B00F8013BF9D20B780370B9
:1002D0004B7843708B7883706046704753B94AB946
:1002E000002908BF00281CBF4FF0FF314FF0FF303E
:1002F00000F0E2B8ADF1080C6DE904CE02F0D8F8D8
:10030000DDF804E0DDE9022304B0704700F13401B8
:1003100091E838009C46A6464CF8045D90E8FF0F33
:10032000E54600BD90EC210B704700BF80EC210B2F
:10033000704700BF90EC200B704700BF80EC200B93
:10034000704700BFD0EC200B704700BFC0EC200B03
:10035000704700BFF0EC0201F0EC0211F0EC02215A
:10036000F0EC0231F0EC0241F0EC0251F0EC0261F1
:10037000F0EC0271F0EC0281F0EC0291F0EC02A1E1
:10038000F0EC02B1F0EC02C1F0EC02D1F0EC02E1D1
:10039000F0EC02F1704700BFE0EC0201E0EC02116A
:1003A000E0EC0221E0EC0231E0EC0241E0EC025131
:1003B000E0EC0261E0EC0271E0EC0281E0EC029121
:1003C000E0EC02A1E0EC02B1E0EC02C1E0EC02D111
:1003D000E0EC02E1E0EC02F1704700BFB0FC01810B
:1003E000B0FC0191B0FC01A1B0FC01B1704700BFAD
:1003F000A0FC0181A0FC0191A0FC01A1A0FC01B125
:10040000704700BFEC4600B52DE900502DE9FF1FF5
:100410004FF000032DE90C0001A902F011FBDDF8FB
:1004200040E012B0704700BFEC4600B52DE9005027
:100430002DE9FF1F4FF000032DE90C0001A902F088
:100440003FFBDDF840E012B0704700BFEC4600B55E
:100450002DE900502DE9FF1F4FF000032DE90C009E
:1004600001A902F04FFBDDF840E012B0704700BF79
:10047000EC4600B52DE900502DE9FF1F4FF00003B9
:100480002DE90C0001AB02F00FFBDDF840E012B0EB
:10049000704700BFEC4600B52DE900502DE9FF1F65
:1004A0004FF000032DE90C0001AA02F081FBDDF8FA
:1004B00040E012B0704700BF704700BF10B5054C58
:1004C000237833B9044B13B10448AFF30080012300
:1004D000237010BD440400200000000038350008DF
:1004E00008B5034B1BB103490348AFF3008008BDB7
:1004F000000000004804002038350008034B03606A
:10050000034B0B6080231360704700BF6006002020
:100510006004002070B588B000240494059406940B
:1005200007941B4B9A6942F004029A619A6902F09F
:1005300004020192019A9A6942F010029A619A6942
:1005400002F010020292029A9A6942F008029A613D
:100550009B6903F008030393039B0E4D2246C021C1
:10056000284600F0B8FA012604960594069404A9DA
:10057000094800F097F9C0230493059606940223D6
:10058000079304A9284600F08DF908B070BD00BF9C
:1005900000100240001001400008014008B509E0C9
:1005A000C021084800F09DFA1E2001F001FE0A203B
:1005B00001F0FEFD0121044800F086FA0128EFD089
:1005C000F5E700BF001001400008014008B5C02158
:1005D000034800F086FAFA2001F0EAFDF7E700BFD1
:1005E0000010014008B50268034B9A4200D008BDD4
:1005F00000F0EEF8FBE700BF002C014072B6FEE70A
:1006000000B595B03822002106A801F08DFE002328
:10061000019302930393049305930223069301230A
:100620000B9310230C9306A800F07AFA80B90F23DD
:1006300001930021029103910491059101A800F01A
:1006400049FD38B9044B01221A6715B05DF804FB67
:10065000FFF7D4FFFFF7D2FF0000424200B58FB092
:1006600000F0A4F8FFF7CCFFFFF754FF124C0DF198
:100670001C0CA646BEE80F00ACE80F009EE8070081
:100680008CE80700002107A800F085FF0B4B1860DD
:10069000EE4604F11C0CBCE80F00AEE80F009CE82D
:1006A00007008EE807000021684600F074FF044B45
:1006B000186000F06BFFFEE750350008B806002018
:1006C000B406002000B583B0104B9A6942F00102D5
:1006D0009A619A6902F001020092009ADA6942F086
:1006E0008052DA61DB6903F080530193019B0022A1
:1006F0000F216FF0010000F08FF8054A536823F0D6
:10070000E063536003B05DF804FB00BF00100240DB
:100710000000014000B589B001460022192000F018
:100720007BF8192000F0B0F8144B9A6942F400628B
:100730009A619B6903F400630193019B02A903A8DA
:1007400000F094FD00F082FD0D4BA3FB00239B0CF9
:10075000013B0C480C4A026040F2E732C260436041
:1007600000230361836000F0DDFE18B1012009B0B1
:100770005DF804FB034800F099FDF8E70010024023
:1007800083DE1B43BC060020002C0140FEE7FEE791
:10079000FEE7FEE7FEE7704708B5024800F0C2FD3D
:1007A00008BD00BFBC0600207047000008B5074A1E
:1007B000136843F010031360032000F01BF80F20B0
:1007C000FFF7A8FFFFF77EFF002008BD00200240D2
:1007D000034A1168034B1B780B441360704700BF3A
:1007E0000407002004000020014B1868704700BF78
:1007F00004070020074AD36823F4E0631B041B0CA2
:10080000000200F4E060034343F0BF6343F40033AD
:10081000D360704700ED00E000B5194BDB68C3F30F
:100820000223C3F1070CBCF1040F28BF4FF0040CE6
:1008300003F1040EBEF1060F18D9033B4FF0FF3E43
:100840000EFA0CFC21EA0C0199400EFA03F322EA9D
:100850000303194300280BDB0901C9B200F1604012
:1008600000F5614080F800135DF804FB0023E5E724
:1008700000F00F000901C9B2024B1954F4E700BFA0
:1008800000ED00E014ED00E0002807DB00F01F029F
:10089000400901239340024A42F82030704700BFCC
:1008A00000E100E070B582B00024A446A6E0804DCF
:1008B000AA4210D007D97F4DAA420CD005F5803549
:1008C000AA4208D013E0A5F58015AA4203D005F589
:1008D0007025AA4207D18A68002A58D0012A51D02F
:1008E0004361082403E0A5F58015AA42F3D0BEF1C8
:1008F000FF0F4ED80646BEF1FF0F4CD84FEA8C02D0
:1009000033680F25954023EA050304FA02F21343E6
:1009100033604B6813F0805F6ED0674B9A6942F08A
:1009200001029A619B6903F001030193019B4FEA65
:100930009C02951C614B53F825600CF003039D004D
:100940000F23AB4026EA03065D4B984229D003F5FE
:100950008063984200F08E8003F58063984200F037
:100960008B8003F58063984219D004231AE0CC6889
:10097000BDE7CC680434BAE7CC680834B7E7CC6884
:100980000C34B4E703610824B1E70024AFE7042482
:10099000ADE7061DAFE7ACF108029200B0E7032314
:1009A00000E00023AB4033430232444D45F822308F
:1009B0004B6813F4803F61D0424A136843EA0E0348
:1009C00013604B6813F4003F5ED03E4A536843EA1D
:1009D0000E0353604B6813F4801F5BD0394A936851
:1009E00043EA0E0393604B6813F4001F58D0354A56
:1009F000D36843EA0E03D3600CF1010C0A6832FAA3
:100A00000CF353D0012303FA0CF302EA030E33EA8A
:100A10000202F1D14A68122A3FF649AF122A3FF684
:100A200066AF01A555F822F0D70800086F09000845
:100A3000790900088B090008EF080008EF08000892
:100A4000EF080008EF080008EF080008EF080008AA
:100A5000EF080008EF080008EF080008EF0800089A
:100A6000EF080008EF080008EF0800087309000805
:100A70007F090008012395E7022393E7114A1368D1
:100A800023EA0E0313609CE70E4A536823EA0E0321
:100A900053609FE70B4A936823EA0E039360A2E733
:100AA000084AD36823EA0E03D360A5E702B070BDFD
:100AB0000000221000003110001002400000014030
:100AC00000080140000401408368194201D0012060
:100AD0007047002070470AB1016170470904016145
:100AE0007047C36801EA030221EA030141EA0241B7
:100AF0000161704782B0084B1B68084AA2FB0323C0
:100B00005B0A00FB03F3019300BF019B5A1E019295
:100B1000002BF9D102B0704700000020D34D6210C5
:100B2000002800F0618270B582B00446036813F0BB
:100B3000010F2CD0994B5B6803F00C03042B1DD0E4
:100B4000964B5B6803F00C03082B12D0A368B3F537
:100B5000803F41D0002B55D103F1804303F504338E
:100B60001A6822F480321A601A6822F480221A600D
:100B700037E08A4B5B6813F4803FE7D0874B1B68F4
:100B800013F4003F03D0A368002B00F02F822368EA
:100B900013F0020F75D0814B5B6813F00C0F5FD020
:100BA0007E4B5B6803F00C03082B54D06369002B69
:100BB00000F08A807A4B01221A60FFF715FE054685
:100BC000764B1B6813F0020F75D1FFF70DFE401B2B
:100BD0000228F5D9032010E2704A136843F48033E9
:100BE0001360A36843B3FFF7FFFD05466B4B1B681B
:100BF00013F4003FCBD1FFF7F7FD401B6428F5D974
:100C00000320FAE1B3F5A02F09D0644B1A6822F44F
:100C100080321A601A6822F480221A60E1E703F138
:100C20008043A3F53C331A6842F480221A601A68A4
:100C300042F480321A60D4E7FFF7D6FD0546574BE1
:100C40001B6813F4003FA2D0FFF7CEFD401B6428C1
:100C5000F5D90320D1E1514B5B6813F4803FA5D156
:100C60004E4B1B6813F0020F03D06369012B40F059
:100C7000BF814A4A136823F0F803A16943EAC1031C
:100C80001360236813F0080F33D0E369002B5CD0A6
:100C9000434B0122C3F88024FFF7A6FD05463F4BD6
:100CA0005B6A13F0020F21D1FFF79EFD401B022863
:100CB000F5D90320A1E1394A136823F0F803A169AB
:100CC00043EAC1031360DCE7354B00221A60FFF7EB
:100CD0008BFD0546314B1B6813F0020FD1D0FFF797
:100CE00083FD401B0228F5D9032086E10120FFF790
:100CF00001FF236813F0040F00F09680274BDB6997
:100D000013F0805F34D1254BDA6942F08052DA610A
:100D1000DB6903F080530193019B0125214B1B6884
:100D200013F4807F26D02369012B3DD0002B53D1B3
:100D300003F1804303F504331A6A22F001021A62B8
:100D40001A6A22F004021A6233E0154B0022C3F83B
:100D50008024FFF749FD0546104B5B6A13F0020F34
:100D6000C7D0FFF741FD401B0228F5D9032044E11D
:100D70000025D3E70B4A136843F480731360FFF731
:100D800033FD0646074B1B6813F4807FCBD1FFF77A
:100D90002BFD801B6428F5D903202EE100100240B2
:100DA0000000424200700040984A136A43F0010379
:100DB0001362236933B3FFF717FD0646934B1B6A93
:100DC00013F0020F2FD1FFF70FFD801B41F2883384
:100DD0009842F3D9032010E1052B09D08B4B1A6AF6
:100DE00022F001021A621A6A22F004021A62E0E793
:100DF000864B1A6A42F004021A621A6A42F0010231
:100E00001A62D6E7FFF7F0FC0646804B1B6A13F028
:100E1000020F08D0FFF7E8FC801B41F288339842AC
:100E2000F3D90320E9E075BBE36A002B6ED0774A63
:100E3000526812F4803F05D0744A526802F00C02E6
:100E4000082A26D0022B4AD1704B1B6813F0805F12
:100E500007D06E4BDB6A03F0F003626B934240F005
:100E6000C9806B4B00229A66FFF7BEFC0546674BB4
:100E70001B6813F0006F13D0FFF7B6FC401B64280B
:100E8000F5D90320B9E0614AD36923F08053D361D7
:100E9000CAE75E4AD26A12F4803FD3D00120ACE0A8
:100EA0005A4AD36A23F0F003616B0B43D362D36ACF
:100EB00023F47063216B0B43D362554B01229A6676
:100EC000FFF792FC0546514B1B6813F0006F1DD1D4
:100ED000FFF78AFC401B6428F5D903208DE04B4ABC
:100EE000D36A23F48033D362494B00229A66FFF71A
:100EF0007BFC0546454B1B6813F0006F06D0FFF7DF
:100F000073FC401B6428F5D9032076E0236A002B8C
:100F100072D03E4A526802F00C02082A54D0022BCA
:100F200011D03B4B00221A66FFF75EFC0446374B9C
:100F30001B6813F0007F45D0FFF756FC001B02280A
:100F4000F5D9032059E0324B00221A66FFF74CFC1A
:100F500005462E4B1B6813F0007F06D0FFF744FCBC
:100F6000401B0228F5D9032047E0636AB3F5803FB0
:100F70001AD026494B6823F47413626AA06A0243AC
:100F800013434B60224B01221A66FFF72DFC0446E7
:100F90001E4B1B6813F0007F12D1FFF725FC001BCE
:100FA0000228F5D9032028E0184AD36A61680B4368
:100FB000D362D36A23F00F03E1680B43D362D8E70F
:100FC00000201AE0002018E0012B18D00F4B5B68BE
:100FD00003F48031626A914213D103F47013A26A60
:100FE000934210D1002008E001207047012004E066
:100FF000012002E0012000E0002002B070BD0120CD
:10100000FBE70120F9E70120F7E700BF00100240ED
:101010000000424230B589B0284B0DF1100C0FCBC7
:10102000ACE80700ACF80030254BEC460FCB8CE861
:101030000F00244B5A6802F00C03042B39D0082B04
:1010400039D1C2F3834308A90B4413F8104C12F4AE
:10105000803F2AD01B49CB6A03F00F0308AA134430
:1010600013F8203CCA6A12F4803F18D00A46C96AB5
:10107000C1F3031C0CF1010CD06AC0F30320023051
:10108000A0FB040E104DA0FB0501ACFB032305FBE8
:101090000E11FFF723F90D2C0ED140080CE00A4881
:1010A00004FB00F0B0FBF3F0F5E7084804FB00F0A8
:1010B00002E0054800E0064809B030BD8835000868
:1010C000C83500080010024040787D0100093D004D
:1010D00000127A00002800F0A08070B50D4604468A
:1010E000524B1B6803F007038B420BD24F4A136825
:1010F00023F007030B431360136803F007038B42CD
:1011000040F08D80236813F0020F17D013F0040F06
:1011100004D0474A536843F4E0635360236813F0F4
:10112000080F04D0424A536843F460535360404A66
:10113000536823F0F003A1680B435360236813F056
:10114000010F31D06368012B20D0022B25D0384A03
:10115000126812F0020F64D035494A6822F0030287
:1011600013434B60FFF740FB0646314B5B6803F0CF
:101170000C036268B3EB820F16D0FFF735FB801BC0
:1011800041F288339842F0D9032045E0284A12689A
:1011900012F4003FE0D101203EE0254A126812F02F
:1011A000007FD9D1012037E0204B1B6803F00703F3
:1011B000AB420AD91D4A136823F007032B4313607F
:1011C000136803F00703AB422DD1236813F0040F1B
:1011D00006D0174A536823F4E063E1680B43536079
:1011E000236813F0080F07D0114A536823F46053A3
:1011F000216943EAC1035360FFF70CFF0C4B5B68A6
:10120000C3F303130B4AD35CD8400B4B18600B4B52
:101210001868FFF77FFA002070BD01207047012099
:10122000FAE70120F8E70120F6E700BF00200240BE
:1012300000100240B0350008000000200800002027
:10124000014B1868704700BF0000002008B5FFF789
:10125000F7FF044B5B68C3F3C223034AD35CD84057
:1012600008BD00BF00100240C03500080F23036016
:101270000B4B5A6802F0030242605A6802F0F00217
:1012800082605A6802F4E062C2605B68DB0803F4C3
:10129000E0630361034B1B6803F007030B607047B7
:1012A00000100240002002407047000090F83D30DE
:1012B000DBB2012B2BD1022380F83D300268D368CA
:1012C00043F00103D3600368134A934214D0B3F18F
:1012D000804F11D0A2F5943293420DD002F5806276
:1012E000934209D002F58062934205D01A6842F019
:1012F00001021A60002070479A6802F00702062A6D
:1013000007D01A6842F001021A60002070470120DD
:1013100070470020704700BF002C014070477047A5
:101320007047704710B5044603681A6912F0020F3F
:1013300011D0DA6812F0020F0DD06FF002021A61BC
:101340000123037703689B6913F0030F70D0FFF745
:10135000E6FF0023237723681A6912F0040F12D0E6
:10136000DA6812F0040F0ED06FF004021A61022343
:10137000237723689B6913F4407F5FD02046FFF7F3
:10138000CEFF0023237723681A6912F0080F12D0CA
:10139000DA6812F0080F0ED06FF008021A61042309
:1013A00023772368DB6913F0030F4ED02046FFF745
:1013B000B6FF0023237723681A6912F0100F12D0AA
:1013C000DA6812F0100F0ED06FF010021A610823C5
:1013D00023772368DB6913F4407F3DD02046FFF775
:1013E0009EFF0023237723681A6912F0010F03D0B0
:1013F000DA6812F0010F36D123681A6912F0800FF3
:1014000003D0DA6812F0800F34D123681A6912F021
:10141000400F03D0DA6812F0400F32D123681A6906
:1014200012F0200F03D0DA6812F0200F30D110BD77
:10143000FFF774FF2046FFF773FF8AE72046FFF7A8
:101440006DFF2046FFF76CFF9BE72046FFF766FF26
:101450002046FFF765FFACE72046FFF75FFF204619
:10146000FFF75EFFBDE76FF001021A612046FFF74C
:10147000B9F8C1E76FF080021A61204600F07FF8EA
:10148000C3E76FF040021A612046FFF74AFFC5E745
:101490006FF020021A61204600F070F8C7E70000E4
:1014A00003681F4A90420ED0B0F1804F0BD0A2F5D6
:1014B0009432904207D002F58062904203D002F548
:1014C0008062904203D123F070034A681343144AA8
:1014D00090420ED0B0F1804F0BD0A2F594329042E2
:1014E00007D002F58062904203D002F580629042FC
:1014F00003D123F44073CA68134323F080034A697D
:10150000134303608B68C3620B688362044B984289
:1015100002D00123436170470B690363F9E700BF01
:10152000002C014040B310B5044690F83D30F3B1B3
:10153000022384F83D30214651F8040BFFF7B0FF39
:10154000012384F8463084F83E3084F83F3084F834
:10155000403084F8413084F8423084F8433084F8D5
:10156000443084F8453084F83D30002010BD80F8C8
:101570003C30FFF799FEDBE701207047704770476A
:10158000842801D0033070470020704708B500F070
:10159000C5FC002008BD2DE9F04387B004460F4686
:1015A0004569BDB18669AEB1D0F80480D0F800902D
:1015B000B0F90800FFF7E4FF0296019500903B4662
:1015C00022694946404600F03BFC0590059807B06B
:1015D000BDE8F08365682668D4F81080B4F9080087
:1015E000FFF7CEFF05AB019300903B461FFA88F250
:1015F0003146284600F05EFC0128E7D00020E6E7EF
:1016000000F1080343604FF0FF328260C360036162
:1016100000230360704700230361704743684B60F9
:101620009A688A60516099600861036801330360B9
:10163000704730B40D68B5F1FF3F11D000F10803D9
:101640001C465B681A68AA42FAD963684B609960C5
:101650008C606160086103680133036030BC7047CF
:101660000469F2E70369416882688A6041685160F1
:101670005A68824206D0002202611A68013A1A6052
:101680001868704782685A60F5E7000082B000234E
:1016900001930D4B1B68B3F1FF3F08D04FF050038F
:1016A00083F31188BFF36F8FBFF34F8FFEE74FF0C7
:1016B000500383F31188BFF36F8FBFF34F8F019BEC
:1016C000002BFCD002B070470C00002006480068D8
:1016D000006880F3088862B661B6BFF34F8FBFF32E
:1016E0006F8F00DF00BF000008ED00E04FF0807357
:1016F00040F8043C21F0010140F8081C034B40F87D
:101700000C3C40F8202C4038704700BF8D16000874
:10171000074B19680868B0E8F00F80F30988BFF339
:101720006F8F4FF0000080F311884EF00D0E704760
:10173000281700204FF0500383F31188BFF36F8FF9
:10174000BFF34F8F0B4A136801331360012B00D096
:1017500070474FF0E023D3F8043D13F0FF0FF7D0AC
:101760004FF0500383F31188BFF36F8FBFF34F8F98
:10177000FEE700BF0C000020094B1B6843B94FF087
:10178000500383F31188BFF36F8FBFF34F8FFEE7D2
:10179000013B034A13600BB983F31188704700BF04
:1017A0000C0000200000000000000000000000000D
:1017B000EFF30980BFF36F8F0D4B1A6820E9F00F2C
:1017C00010602DE908404FF0500080F3118800F0C0
:1017D00015FD4FF0000080F31188BDE8084019683E
:1017E0000868B0E8F00F80F30988BFF36F8F704787
:1017F0002817002008B54FF0500383F31188BFF37A
:101800006F8FBFF34F8F00F0CBFB28B14FF0E02379
:101810004FF08052C3F8042D002383F3118808BDD4
:101820004FF0E022002313619361054B1B680549CB
:10183000A1FB03139B09013B53610723136170470D
:1018400000000020D34D621010B582B02A4B1A78E8
:10185000D2B20192FF221A701B78DBB28DF80330EE
:101860009DF8033003F05003244A1370244B0722E1
:101870001A6009E0224A1368013B13609DF80330A7
:101880005B00DBB28DF803309DF8033013F0800F5E
:10189000F0D11B4B1B68032B08D04FF0500383F390
:1018A0001188BFF36F8FBFF34F8FFEE71B02144AFF
:1018B000136003F4E0631360019BDBB20E4A137004
:1018C0004FF0E023D3F8202D42F47002C3F8202D0E
:1018D000D3F8202D42F07042C3F8202DFFF7A0FF6F
:1018E0000024084B1C60FFF7F1FE00F087FCFFF7B7
:1018F000CDFE204602B010BD00E400E00807002045
:101900000C0700200C000020124A12F0070F1ED016
:10191000D11D21F00701C1F5805313440A460E483A
:101920000260002141601344083B23F007030B4889
:10193000036059601960991A51601360084B19606F
:10194000084B1960084B4FF000421A6070474FF483
:101950008053E4E714070020201700201007002020
:101960001C1700201817002014170020154B1A46CA
:101970001B688342FBD3516802EB010C844509D0FC
:10198000416800EB010C634509D00360904218D018
:10199000106070474068014451601046F0E710B491
:1019A000094C2468A3420AD05B681944416013685B
:1019B0001B680360904200D0106010BC7047046048
:1019C000F8E77047201700201007002070B5054683
:1019D00000F0DEFA344B1B68A3B1344B1B681D4288
:1019E0004AD135B1083515F0070F02D025F00705AB
:1019F0000835002D42D02E4B1B68AB424DD32D4AEB
:101A0000146804E0FFF780FFE7E722461C4663689E
:101A1000AB4202D22368002BF7D1234B1B68A342B1
:101A20003DD0166808362368136063685B1B102B73
:101A300010D9601910F0070F08D04FF0500383F34E
:101A40001188BFF36F8FBFF34F8FFEE74360656070
:101A5000FFF78CFF626816490B689B1A0B601649EA
:101A600009688B4201D214490B60104B1B68134369
:101A700063600023236002E0002600E0002600F0FF
:101A80001BFB16F0070F0CD04FF0500383F31188A7
:101A9000BFF36F8FBFF34F8FFEE70026EFE70026FF
:101AA000EDE7304670BD00BF10070020141700207E
:101AB00018170020201700201C17002080B338B50D
:101AC0000446A0F1080550F8043C164A1268134277
:101AD00008D14FF0500383F31188BFF36F8FBFF32A
:101AE0004F8FFEE750F8081C41B14FF0500383F3CD
:101AF0001188BFF36F8FBFF34F8FFEE723EA020316
:101B000040F8043C00F044FA54F8041C064A1368F8
:101B10000B4413602846FFF729FF00F0CDFA38BDCB
:101B2000704700BF1417002018170020084B1B68CF
:101B30001B6823B9074B4FF0FF321A607047044B04
:101B40001B68DB68DB685A68024B1A60704700BF8D
:101B50002C170020041800202DE9F047074698466E
:101B6000089DDDF824900A9C266B02F18042013A20
:101B700006EB820626F007064FF0000CBCF10F0FB3
:101B80000BD811F80C2004EB0C0383F8342011F867
:101B90000C3013B10CF1010CF0E7002384F8433052
:101BA000062D00D90625E56265644FF0000AC4F8E9
:101BB00048A0201DFFF72FFD04F11800FFF72BFDB3
:101BC0002461C5F10705A5616462C4F84CA084F8DE
:101BD00050A0424639463046FFF788FD2060B9F1F3
:101BE000000F01D0C9F80040BDE8F08738B50024E7
:101BF00007E004EB840293000E481844FFF700FD51
:101C00000134062CF5D90C4D2846FFF7F9FC0B4C96
:101C10002046FFF7F5FC0A48FFF7F2FC0948FFF7FA
:101C2000EFFC0948FFF7ECFC084B1D60084B1C60FB
:101C300038BD00BF34170020D8170020EC17002053
:101C40000C18002038180020241800202C17002021
:101C50003017002010B50446FFF76CFD214A1368C9
:101C600001331360204B1B685BB1204B1B686BB9C1
:101C70001D4B1B68DA6AE36A9A4207D81A4B1C604C
:101C800004E0194B1C601368012B28D0184A136814
:101C900001331360E06A01238340164A11680B4345
:101CA000136000EB8000211D134B03EB8000FFF756
:101CB000B5FCFFF761FD0D4B1B687BB10A4B1B6840
:101CC000DA6AE36A9A4209D24FF0E0234FF0805279
:101CD000C3F8042DBFF34F8FBFF36F8F10BDFFF715
:101CE00085FFD3E7C0170020281700202018002008
:101CF000D0170020D41700203417002010B5044658
:101D000090F8513063B1012B11D0022B0ED04FF05F
:101D1000500383F31188BFF36F8FBFF34F8FFEE73C
:101D2000006BFFF7CBFE2046FFF7C8FE10BDFFF7A4
:101D3000C5FEFBE70F4B1B68D3B110B5FFF7FAFCEC
:101D40000D4BDB68DC68201DFFF78CFC0B4A136829
:101D5000013B1360074A1368013B1360FFF70CFD5A
:101D60002046FFF7CBFF034B1B68002BE6D110BDCD
:101D7000704700BFC417002038180020C01700208B
:101D800008B5FFF7D7FF074B1B68012BF9D94FF0B8
:101D9000E0234FF08052C3F8042DBFF34F8FBFF301
:101DA0006F8FEEE73417002070B504460D461D4BCB
:101DB0001E681D4B18680430FFF754FC50B91A4BCD
:101DC0001B68DA6A012303FA02F218490B6823EA56
:101DD00002030B60B4F1FF3F0DD03444124B1B687B
:101DE0005C60A64210D9124B18680F4B1968043179
:101DF000FFF71FFC70BD002DEFD00B4B19680431AD
:101E00000C48FFF70BFCF5E70B4B1868064B1968FD
:101E10000431FFF70EFC094B1B68A342EAD9074BBC
:101E20001C60E7E74C18002028170020D41700207A
:101E300030170020241800202C1700200418002040
:101E400030B587B00B9C7CB10C9DB5B15425049581
:101E5000049D542D1AD04FF0500383F31188BFF323
:101E60006F8FBFF34F8FFEE74FF0500383F311885E
:101E7000BFF36F8FBFF34F8FFEE74FF0500383F335
:101E80001188BFF36F8FBFF34F8FFEE70C9D2C635C
:101E9000022485F8514000240394029505AC019476
:101EA0000A9C0094FFF758FE0C98FFF7D3FE0598A4
:101EB00007B030BD2DE9F04385B00746884614468B
:101EC0001E469000FFF782FD00B381465420FFF7C5
:101ED0007DFD0546B0B1C0F83090E5B1002385F82E
:101EE0005130039302950D9B01930C9B0093334655
:101EF000224641463846FFF72FFE2846FFF7AAFE46
:101F0000012005E04846FFF7D9FDE6E74FF0FF3036
:101F100005B0BDE8F0834FF0FF30F9E710B588B0A9
:101F200000240594069407AA06A905A8FEF7E6FA78
:101F3000059B0293069B019300942346079A0E4942
:101F40000E48FFF77DFF0E4B186090B14FF0500325
:101F500083F31188BFF36F8FBFF34F8F094B4FF09F
:101F6000FF321A60084B01221A60084B1C60FFF711
:101F70006BFC08B010BD00BFDC350008811D0008F7
:101F80000018002004180020201800204C18002001
:101F9000024A136801331360704700BFCC1700205A
:101FA000F8B53A4B1B68002B64D1394B1D680135DD
:101FB0001D60C5B9374B1B681B6843B14FF0500318
:101FC00083F31188BFF36F8FBFF34F8FFEE7314A62
:101FD0001168314B186810601960304A136801337A
:101FE0001360FFF7A3FD2E4B1B68AB4238D90027C7
:101FF0002C4B1B68DB6A03EB83039A002A4B9B582C
:10200000012B3CD901273AE00127224B1B681B68B2
:1020100043B3204B1B68DB68DC6863689D4226D3B2
:10202000261D3046FFF71EFBA36A1BB104F1180002
:10203000FFF718FBE36A01229A401C490868024333
:102040000A6003EB83039A00314617481044FFF7F8
:10205000E5FAE26A134B1B68DB6A9A42D4D2D4E7F2
:102060000027D2E70E4B4FF0FF321A60C0E70C4A50
:102070001360BDE70E4A13680133136000270D4B50
:102080001B6803B101273846F8BD00BFCC170020FC
:102090004C1800202C1700203017002008180020B2
:1020A000041800202817002034170020D41700201F
:1020B000C81700205018002038B5354B1B6843B9AD
:1020C0004FF0500383F31188BFF36F8FBFF34F8F2F
:1020D000FEE7FFF72FFB2E4B1A68013A1A601B68C8
:1020E000002B4FD12B4B1B680BB900244BE0002475
:1020F000294B1B681BB3284BDB68DC6804F1180014
:10210000FFF7B0FA251D2846FFF7ACFAE06A012375
:102110008340224A11680B43136000EB800029467C
:102120001F4B03EB8000FFF779FAE26A1D4B1B6837
:10213000DB6A9A42DCD31C4B01221A60D8E70CB14F
:10214000FFF7F4FC194B1C6884B9174B1C68D4B119
:102150004FF0E0234FF08052C3F8042DBFF34F8FB0
:10216000BFF36F8F01240EE0013C07D0FFF718FF8B
:102170000028F9D00C4B01221A60F5E70B4B002226
:102180001A60E2E70024FFF7F7FA204638BD00BFE7
:10219000CC170020C01700200C180020D4170020F6
:1021A000341700202817002050180020C8170020DE
:1021B00010B5A8B10446104B1B6843B14FF0500353
:1021C00083F31188BFF36F8FBFF34F8FFEE7FFF7E5
:1021D000DFFE00212046FFF7E7FDFFF76DFF48B95E
:1021E0004FF0E0234FF08052C3F8042DBFF34F8F20
:1021F000BFF36F8F10BD00BFCC170020204B1B68B2
:102200001BB1204B01221A6070471E4B00221A603E
:102210001D4B1B68B3FA83F3DBB2C3F11F0303EB5F
:1022200083018A0019498A5842B94FF0500383F359
:102230001188BFF36F8FBFF34F8FFEE7134903EB96
:10224000830082000A4450684068506003EB830CAE
:102250004FEA8C0208321144884209D003EB830311
:102260009A000A4B13445B68DA68094B1A6070479E
:10227000406862469100054A0A445060EEE700BF9C
:10228000CC17002050180020D4170020341700204D
:10229000281700200C480D490D4A002302E0D458AD
:1022A000C4500433C4188C42F9D30A4A0A4C0023A0
:1022B00001E013600432A242FBD3FEF775FA00F08E
:1022C0000FF8FEF7CBF9704700000020440400200F
:1022D000C8360008440400205C180020FEE7000017
:1022E00070B50D4E0D4D761BB61006D0002455F876
:1022F000043B01349847A642F9D1094E094D01F03B
:102300001BF9761BB61006D0002455F8043B0134A7
:102310009847A642F9D170BDBC360008BC3600080B
:10232000C4360008BC360008830730B548D0541EB8
:10233000002A3FD00346CAB201E0013C3AD303F879
:10234000012B9D07F9D1032C2DD9CDB245EA0525E6
:102350000F2C45EA054536D9A4F1100222F00F0CE6
:1023600003F1200EE6444FEA121C03F1100242E989
:10237000045542E9025510327245F8D10CF10102C0
:1023800014F00C0F03EB021204F00F0C13D0ACF19D
:10239000040323F003030433134442F8045B934221
:1023A000FBD10CF003042CB1CAB21C4403F8012B7E
:1023B0009C42FBD130BD64461346002CF4D1F9E7B2
:1023C00003461446BFE71A46A446E0E7024B13B1A2
:1023D000024800F005B8704700000000ED23000837
:1023E000002301461A46184600F01AB838B5084BC3
:1023F000084D5B1B9C1007D0043B1D44013C55F865
:1024000004399847002CF9D1BDE8384001F09AB85A
:10241000C8360008C4360008704700BF704700BFC8
:102420002DE9F047DFF87CA00646DAF80000984670
:102430000F469146FFF7F0FF1B4B1B68D3F848414E
:1024400024B365681F2D26DC5EB96B1C0235DAF8F3
:102450000000636044F82570FFF7E0FF0020BDE84E
:10246000F087012304EB8501C1F88890D4F8882116
:10247000AB401A43022EC4F88821C1F80881E4D188
:10248000D4F88C211343C4F88C31DEE703F5A6742D
:10249000C3F84841D5E7DAF80000FFF7BFFF4FF077
:1024A000FF30DCE740040020E4350008FEE700BF11
:1024B0002DE9F047089E0D4604468846002B4DD175
:1024C0008A42944668D9B2FA82F252B101FA02F312
:1024D000C2F1200120FA01F10CFA02FC41EA0308E2
:1024E00094404FEA1C41B8FBF1F71FFA8CFE01FB48
:1024F000178807FB0EF0230C43EA084398420AD9D9
:102500001CEB030307F1FF3580F01E81984240F277
:102510001B81023F63441B1AB3FBF1F001FB103334
:1025200000FB0EFEA4B244EA0344A6450AD91CEB04
:10253000040400F1FF3380F00981A64540F20681D2
:10254000644402380021A4EB0E0440EA07401EB1A7
:102550000023D440C6E90043BDE8F0878B4208D988
:10256000002E00F0EE800021C6E900050846BDE817
:10257000F087B3FA83F100294AD1AB4202D38242F9
:1025800000F2FC80841A65EB030301209846002EBC
:10259000E2D0C6E90048DFE702B9FFDEB2FA82F214
:1025A000002A40F09180A1EB0C0001214FEA1C476A
:1025B0001FFA8CFEB0FBF7F307FB1300250C45EA6E
:1025C00000450EFB03F0A84208D91CEB050503F1FA
:1025D000FF3802D2A84200F2CE8043462D1AB5FB46
:1025E000F7F007FB10550EFB00FEA4B244EA0544C9
:1025F000A64508D91CEB040400F1FF3502D2A6451C
:1026000000F2B6802846A4EB0E0440EA03409EE7A1
:10261000C1F120078B4022FA07FC4CEA030C25FA93
:1026200007FA4FEA1C49BAFBF9F820FA07F309FB4D
:1026300018AA8D401FFA8CFE1D4300FA01F308FB17
:102640000EF02C0C44EA0A44A04202FA01F20BD923
:102650001CEB040408F1FF3A80F08880A04240F2AD
:102660008580A8F102086444241AB4FBF9F009FB40
:10267000104400FB0EFEADB245EA0444A64508D95D
:102680001CEB040400F1FF356CD2A6456AD9023870
:10269000644440EA0840A0FB0295A4EB0E04AC425F
:1026A000C846AE4656D353D0002E69D0B3EB0802CD
:1026B00064EB0E0422FA01F304FA07F71F43CC403F
:1026C000C6E90074002147E70CFA02FCC2F12001C0
:1026D00025FA01F34FEA1C4720FA01F195400D431A
:1026E000B3FBF7F107FB11331FFA8CFE280C40EA0D
:1026F000034001FB0EF3834204FA02F408D91CEBF9
:10270000000001F1FF382FD283422DD902396044F5
:10271000C01AB0FBF7F307FB1300ADB245EA004562
:1027200003FB0EF0A84208D91CEB050503F1FF38A6
:1027300016D2A84214D9023B6544281A43EA014143
:1027400038E73146304607E72F46E4E61846F9E613
:102750004B45A9D2B9EB020865EB0C0E0138A3E793
:102760004346EAE7284694E74146D1E7D0467BE76F
:102770006444023847E7023B65442FE7084606E712
:102780003146E9E603685A004CBF43F0004323F0AA
:1027900000431844704700BF2DE9F84339B34F1E7A
:1027A000044615463E464FF0000808EB060101EBD3
:1027B000D171491004EBC1094846FFF7E3FF034616
:1027C000C80008308F4220440BD0AB420BD8FFF733
:1027D000D9FF0138A84201F10108E6D34846BDE817
:1027E000F883AB42FAD9884501D04E1EDDE74FF0A1
:1027F00000094846BDE8F883012807D0022807D021
:10280000044B00280CBF1846002070470248704750
:1028100002487047D92E0008E12E0008E92E000872
:1028200030B5244B044683B08D1E3BB3284601A926
:10283000AFF30080E8B101992A46FFF7ADFF0146EA
:10284000B8B1FFF79FFF4B68A064012B2ED0002B7F
:1028500027DB081DFFF796FF0023C4E91303036875
:10286000002B12DBFFF78EFF03460020236103B02D
:1028700030BD00230920236103B030BD0E4B0F494A
:102880001846C91AC9100191D6E7C3F30360FFF7D0
:10289000B3FF0028034614BF00200920236103B0C2
:1028A00030BD0123081DC4E91303D8E70023052028
:1028B0002361DCE700000000F4350008BC360008A6
:1028C000036810B5DA07044606D49B0700F14800F8
:1028D00009D5FDF72FFD2368590709D51A070ED52D
:1028E000DB0613D510BDFDF71DFD23685907F5D490
:1028F00004F1D000FDF726FD23681A07F0D404F593
:10290000A870FDF727FD2368DB06EBD404F5E8701B
:10291000BDE81040FDF762BD0346006800B11844F1
:10292000704700BF704700BF70B504460E46204692
:10293000316CFFF775FF054698B9D6F840C03246AE
:10294000214601202369C4F814C098470828EED016
:10295000072806D12846316CFFF7E4FF301DFDF74C
:10296000D5FC00F08DFD00BF2DE9F0474FF0000AC7
:10297000ADF5727D0DF10C0E01F1040CC768D0F8B5
:10298000188006461446BCE80F00AEE80F00BCE80D
:102990000F00AEE80F00BCE80F00AEE80F009CE8A7
:1029A0000F0002AD8EE80F00C5F800A021E02B6CEF
:1029B0004FF4F072294673617AA8FDF719FC31468D
:1029C000504633697AAA9847889C82466C6433469D
:1029D000324649460120CDE90058B8470446F0B9CF
:1029E0004FF4F07228467AA9FDF702FCBAF1080FFD
:1029F0001BD13046296CFFF713FF04F109095FFA78
:102A000089FA04460028D2D0A96B3346696432465D
:102A10000120CDE900584AF01001B84700B109245F
:102A200020460DF5727DBDE8F087BAF1070FF6D1AB
:102A30002046296CFFF776FF03A8FDF767FC00BF6F
:102A4000F0B54FF0FF37CB6BF9B00B6401AC01F17F
:102A5000040C0E460546BCE80F000FC4BCE80F008E
:102A60000FC4BCE80F000FC49CE80F0084E80F00FF
:102A7000009706E06A4629462B69984708280446CD
:102A800008D128461099FFF7CBFE0028F2D0092084
:102A900079B0F0BD6846FFF713FF062CF7D1314639
:102AA0002846FFF741FF00BF10B414468461DC6B79
:102AB000C16000221C64194610BCFFF755BF00BF5F
:102AC00070B54369C6680B64AEB90A46036904462B
:102AD0000D46014602209847072805D008280FD147
:102AE00029462046FFF720FF3046296CFFF71AFFE2
:102AF000281DFDF70BFC0122FFF736FF00F0C0FC9C
:102B000000F0BEFCC26832B1D1F83CC00022C1F86E
:102B100040C0FFF729BFFFF793BF00BF012912D0C4
:102B200009D873B90F2A0CD800EB82004268184606
:102B3000009B1A6070470339012994BF01200220CD
:102B40007047022070470846704700BF002300B559
:102B500085B00A4603A900911946FFF7DFFF0398E5
:102B600005B05DF804FB00BF012912D009D873B984
:102B70000F2A0CD8009900EB8202096818465160B0
:102B800070470339012994BF0120022070470220B9
:102B900070470846704700BF002310B584B003ACEF
:102BA000039200940A461946FFF7DEFF04B010BDF9
:102BB00070B54FF0FF36D36BADF50E7D13640DF19C
:102BC0005C0E02F1040C05460C46BCE80F00AEE8B2
:102BD0000F00BCE80F00AEE80F00BCE80F00AEE845
:102BE0000F009CE80F008EE80F00169612E00C21F3
:102BF00016A86A46FFF7D0FF214616A8A84778B95D
:102C000069460820049B16AA98470528064608D05E
:102C1000092805D068462699FFF702FE0028E6D06D
:102C2000092616A8FFF74CFE30460DF50E7D70BD47
:102C30002DE9F04F1E46CC6C89B054F8043B0D468C
:102C4000174600F003080694002E79D002228DF872
:102C50001C201A0C8DF81D201B04D2B2059304EB26
:102C600082042B6DB8F1020F08BFAC6B13F00103A7
:102C70000CD0384605A900F091FA18B9082009B01F
:102C8000BDE8F08F092009B0BDE8F08FD4F800A0AE
:102C9000BAF1000FEDD0019300F008030293022E69
:102CA0004AD0B4F800A0B4F802900434AA6C0F2102
:102CB000384629F0010B9344FFF748FF834539D884
:102CC0002AF001025A44824294BF002001204FEAB8
:102CD000490303F002030AF0010A43EA0A03012B45
:102CE00049D0022B32D0002BCCD1B8F1000F02D04A
:102CF000002840F0CE800434D4F800A0BAF1000FD0
:102D0000CDD1384605A900F049FA0028BAD1019B77
:102D1000002BB3D00F213846FFF718FF0E210246D3
:102D20003846FFF739FF38460F216A4AFFF734FF6C
:102D30000720A8E70020CAE7D4F804900834B5E7D4
:102D40001B0205930323ADF81C308AE7236823F0A8
:102D5000004BB8F1000F45D128B1029A002A5CD08F
:102D6000BBF1000F74D0002B00DA04340BF1010B1F
:102D700004EB8B04C0E7B8F1000F19D1B0B1636860
:102D80002268991C4FEAD2723FF47CAF05F15801DA
:102D90000133049100F09180201DFFF7BDFD04ABCD
:102DA00001462846AFF3008000285CD10834A3E731
:102DB0000D213846D5F82090FFF7C8FE8145F5D1A2
:102DC000AB6A9C42F2D12046FFF7DCFC0F210246A1
:102DD0003846FFF7E1FE38462A460021FFF7DCFEC1
:102DE000072050E70D213846D5F82090FFF7AEFEBA
:102DF000814501D02368B6E7AB6A9C42FAD104232F
:102E00000022C5E90B23E318C5F828B06B632368DB
:102E1000002B5ADB01230193A8E705F15803CDF8F5
:102E20000C809146B04604F1040A1E460EE050465E
:102E30000496FFF771FD0022014604AB284609F114
:102E400001090AF1040AAFF30080E8B9D945EED1CF
:102E50000D213846FFF77AFE0346049A0620C5E99D
:102E600009242B620FE781460D213846FFF76EFEDD
:102E7000B9F1020F286225D12B46049A43F82C2F72
:102E80006B620620AC62FEE646462368DDF80C80E5
:102E900069E72046FFF776FC02460434AC63284617
:102EA0001446AFF3008000283FF4ECAE38462246CB
:102EB0000F21FFF771FE0720E5E60D213846FFF7E9
:102EC00045FE2862049B6B62DBE70BF1010004EB1B
:102ED000800079E7000000000023FFF7A9BE00BFD3
:102EE0000123FFF7A5BE00BF0223FFF7A1BE00BF6D
:102EF0002DE9F043064615461C46C3B0042900F2EE
:102F0000B880DFE801F09C56B62D0300002C40F09D
:102F1000B080102A00F2AD800368D80600F1F1807D
:102F200020AF3846FDF764FA012438460023B16B20
:102F300004FA03F22A4203F1010305D00A4652F8CB
:102F400004CB1146C0F800C0042B00F10400EFD1FF
:102F50003846B163FDF742FA002043B0BDE8F08384
:102F6000032C40F0868094B204EB1243102B4FEAFE
:102F700012457ED803681F0700F1CB8020AF38468A
:102F8000FDF70AFAB26B07EBC50154B10B4601EB32
:102F9000C401D01AE4001D5843F8045B8B42FAD1F7
:102FA00022443846B263FDF7D5F9002043B0BDE8AE
:102FB000F083012C4FEA124895B256D0052C58D117
:102FC00008EB0509B9F1200F53D8B8F10F0F73D9E9
:102FD000A946002D40F08480B36B65B320AF4FF05D
:102FE000000907EBC807043F03EBC50553F8041BB2
:102FF000AB4247F8041FF9D1B9F1000F0FD06F466B
:103000004146102938BF102107EBC101843903EB79
:10301000C90553F8040BAB4241F8040FF9D1012C58
:103020007FD0B8F10F0FB56342D9B9F1000F02D0CC
:103030006846FDF787F9002043B0BDE8F083C4B9C6
:1030400023460124826B371DA8B204FA03F1014222
:103050001CBF52F8041B47F823100133102BF4D186
:1030600015F40050E7D1B26304E008EB0503102B20
:1030700003D9022043B0BDE8F083B8F10F0FF8D8B0
:103080003368DA0706D5304623F0030340F8483B9F
:10309000FDF74CF920AF3846FDF748F9B36B002D2A
:1030A0009DD11D4604353846B563FDF73BF9C2E7AF
:1030B00020A8FDF73FF9B8E7B9F1100F3FD9A9F102
:1030C00010093368D90708D5304623F0010343F0CF
:1030D000020340F8483BFDF731F9B9F1000F31D058
:1030E00033685A071FD4B8F10F0F24D96F46C8F1BF
:1030F00010053846FDF72AF9002DB36B80DD20AFAF
:103100006FE723F01003336006F5E870FDF770F900
:1031100006E723F00803036000F5A870FDF73CF90B
:103120002CE720AFBEE7304623F0040340F8D03B45
:10313000FDF70CF9D7E720A8FDF700F9D6E74FF027
:103140000009BEE7B8F10F0F3FF646AF20AF384693
:10315000FDF7F4F8B36B002D7FF441AF3846FDF76F
:10316000E9F868E7027A03467AB9427AA2B14FF0E9
:10317000030C4168013A427208680A1D5A60020253
:1031800083F808C0000E1A6070470068013A1A728E
:1031900002021A60000E7047B02070472DE9F0431C
:1031A0004FF0000805460E4685B03046FFF7DAFFBF
:1031B000B028044600F0BA80070620D500F0F003DE
:1031C000802B4DD0902B36D0A02B60D0B02B73D05D
:1031D000C02B00F08A8000F0F803D02B0BD100F058
:1031E0000702013205230121284642F40022FFF79D
:1031F0007FFE0028D9D0092005B0BDE8F083830008
:10320000DBB21F1D00230DF10C0919460D222846C3
:10321000CDF80090FFF782FC039B60064CBFDF1BDC
:10322000FF1800230D2228461946CDF80090039779
:10323000FFF79AFCB9E700F00D030D2BDBD000235C
:1032400003AF194600F00F0200972846FFF766FC0F
:1032500000230D22284619460097FFF785FCA4E7B6
:103260003046FFF77FFF24022043B0F5004FC2D065
:103270000023040119462846A2B2FFF739FE0028B0
:10328000B9D114F4004F18BF4FF001088DE7C343C4
:103290004FF47F6203F007031A410023010702F491
:1032A0007F6248BF42F4804228461946FFF720FE5D
:1032B00000283FF47AAF9EE7B1283CD0B22800F056
:1032C000B080B3284AD000F0FC03B42B93D0012384
:1032D00000F007021A442846194642F40022FFF77C
:1032E00007FE00283FF461AF85E7C6284FD0C72806
:1032F00061D000F0F803C02B70D0C8287CD0C9285A
:103300007FF479AF3046FFF72DFF052302460121F8
:103310002846140302F00F0204F470240A442243E6
:10332000FFF7E6FD00283FF440AF64E7B8F1000F77
:103330001CD0002060E73046FFF714FF024600284B
:103340003FF459AF10F0F0037FF455AF194628460B
:10335000FFF7CEFD00283FF428AF4CE73046FFF7DB
:1033600001FF0123024619462846D2E703AC434633
:103370000E22414628460094FFF7D0FB43460F2219
:10338000284641460094FFF7EFFB404634E73046BD
:10339000FFF7E8FE02460323140302F00F0204F4D1
:1033A00070240132284619462243FFF7A1FD002868
:1033B0003FF4FBAE1FE73046FFF7D4FE024600287D
:1033C0003FF419AF10F0F0037FF415AF0421284645
:1033D000FFF78EFD00283FF4E8AE0CE7032300F072
:1033E0000F0201322846194642F42022FFF780FDE1
:1033F00000283FF4DAAEFEE63046FFF7B3FE0246A1
:10340000012102F0F00402F00F0210340A440523F7
:10341000284642EA0432FFF76BFD00283FF4C5AEB0
:10342000E9E600230DF10C090D2219462846CDF8D6
:103430000090FFF773FB3046FFF794FE02064FF053
:1034400002040CD5039B00F07F00A04018440390B9
:103450003046FFF787FE030604F10704F2D4039B0E
:1034600000F07F02A24003F501731A440023039287
:1034700028460D221946CDF80090FFF775FB94E61B
:10348000062008B500F004F80120FFF70FF800BF90
:1034900038B5154B1F281D6820D8D5F8DC22044606
:1034A00062B152F820304BB1012B15D0591C0FD00E
:1034B000002542F820509847284638BD284600F09D
:1034C00029F8224601462846BDE8384000F00EB8EB
:1034D000162301202B6038BD002038BD16234FF085
:1034E000FF302B6038BD00BF1000002070B50026F3
:1034F000074D0446084611462E6000F015F8431C9F
:1035000000D070BD2B68002BFBD0236070BD00BFC6
:103510005818002000F000B85822024B4FF0FF303E
:103520001A607047581800205822024B4FF0FF30A5
:103530001A60704758180020F8B500BFF8BC08BCE6
:103540009E467047F8B500BFF8BC08BC9E46704761
:1035500098350008CD0500080000000000000000BC
:10356000800000000000000000000000A4350008FA
:103570009D05000800000000000000008000000021
:103580000000000000000000000004050607080914
:1035900000000000000D000064656661756C7454E5
:1035A00061736B005461736B427574746F6E0000CD
:1035B00000000000000000000102030406070809E3
:1035C00000000000010203040102030405060708CD
:1035D000090A0B0C0D0E0F100000000049444C4569
:0835E0000000000018000020AB
:0C35E80008B10181B0B0008400000000B8
:1035F400ECECFF7FB0B0AA802CEDFF7F010000004F
:10360400E8EDFF7FA908B1800CEEFF7F0100000008
:103614000CEEFF7FB0B0AE8090EEFF7F01000000A3
:10362400FCF1FF7FB0A9028094F2FF7FB0B0A880C4
:10363400E4F2FF7F01000000ECF2FF7FB0B0AA804B
:1036440024F3FF7FAE71B280F4F3FF7FAB3F388089
:1036540054F4FF7F0100000064F4FF7FB0B0AA803F
:10366400A0F4FF7F0100000044F5FF7FAA0DB280A3
:10367400BCF5FF7FB0AF08805CF8FF7F010000005D
:103684006CF8FF7FAD3F0280D8FAFF7F0100000095
:1036940008FBFF7FB0AD0480E4FDFF7F48FFFF7FA0
:1036A400ECFDFF7FA908B18040FEFF7FB0B0AA8087
:0836B40060FEFF7F0100000031
:0836BC00CD230008E104000821
:0436C400BD04000839
:1036C8000024F4000100000010000000AAAAAAAA21
:1036D8001800002000000000000000000403002083
:1036E8006C030020D403002000000000000000004C
:1036F80000000000000000000000000000000000C2
:1037080000000000000000000000000000000000B1
:1037180000000000000000000000000000000000A1
:103728000000000000000000000000000000000091
:103738000000000000000000000000000000000081
:103748000000000000000000000000000000000071
:103758000000000000000000000000000000000061
:103768000000000000000000000000000000000051
:103778000000000000000000000000000000000041
:1037880001000000000000000E33CDAB34126DE6DE
:10379800ECDE05000B000000000000000000000047
:1037A8000000000000000000000000000000000011
:1037B8000000000000000000000000000000000001
:1037C80000000000000000000000000000000000F1
:1037D80000000000000000000000000000000000E1
:043B0800541800202D
:040000050800229538
:00000001FF
